{
  "_format": "hh-sol-artifact-1",
  "contractName": "LazyNFT",
  "sourceName": "contracts/LazyNFT.sol",
  "abi": [
    {
      "inputs": [
        {
          "internalType": "address payable",
          "name": "minter",
          "type": "address"
        }
      ],
      "stateMutability": "nonpayable",
      "type": "constructor"
    },
    {
      "anonymous": false,
      "inputs": [
        {
          "indexed": true,
          "internalType": "address",
          "name": "owner",
          "type": "address"
        },
        {
          "indexed": true,
          "internalType": "address",
          "name": "approved",
          "type": "address"
        },
        {
          "indexed": true,
          "internalType": "uint256",
          "name": "tokenId",
          "type": "uint256"
        }
      ],
      "name": "Approval",
      "type": "event"
    },
    {
      "anonymous": false,
      "inputs": [
        {
          "indexed": true,
          "internalType": "address",
          "name": "owner",
          "type": "address"
        },
        {
          "indexed": true,
          "internalType": "address",
          "name": "operator",
          "type": "address"
        },
        {
          "indexed": false,
          "internalType": "bool",
          "name": "approved",
          "type": "bool"
        }
      ],
      "name": "ApprovalForAll",
      "type": "event"
    },
    {
      "anonymous": false,
      "inputs": [
        {
          "indexed": true,
          "internalType": "bytes32",
          "name": "role",
          "type": "bytes32"
        },
        {
          "indexed": true,
          "internalType": "bytes32",
          "name": "previousAdminRole",
          "type": "bytes32"
        },
        {
          "indexed": true,
          "internalType": "bytes32",
          "name": "newAdminRole",
          "type": "bytes32"
        }
      ],
      "name": "RoleAdminChanged",
      "type": "event"
    },
    {
      "anonymous": false,
      "inputs": [
        {
          "indexed": true,
          "internalType": "bytes32",
          "name": "role",
          "type": "bytes32"
        },
        {
          "indexed": true,
          "internalType": "address",
          "name": "account",
          "type": "address"
        },
        {
          "indexed": true,
          "internalType": "address",
          "name": "sender",
          "type": "address"
        }
      ],
      "name": "RoleGranted",
      "type": "event"
    },
    {
      "anonymous": false,
      "inputs": [
        {
          "indexed": true,
          "internalType": "bytes32",
          "name": "role",
          "type": "bytes32"
        },
        {
          "indexed": true,
          "internalType": "address",
          "name": "account",
          "type": "address"
        },
        {
          "indexed": true,
          "internalType": "address",
          "name": "sender",
          "type": "address"
        }
      ],
      "name": "RoleRevoked",
      "type": "event"
    },
    {
      "anonymous": false,
      "inputs": [
        {
          "indexed": true,
          "internalType": "address",
          "name": "from",
          "type": "address"
        },
        {
          "indexed": true,
          "internalType": "address",
          "name": "to",
          "type": "address"
        },
        {
          "indexed": true,
          "internalType": "uint256",
          "name": "tokenId",
          "type": "uint256"
        }
      ],
      "name": "Transfer",
      "type": "event"
    },
    {
      "inputs": [],
      "name": "DEFAULT_ADMIN_ROLE",
      "outputs": [
        {
          "internalType": "bytes32",
          "name": "",
          "type": "bytes32"
        }
      ],
      "stateMutability": "view",
      "type": "function"
    },
    {
      "inputs": [],
      "name": "MINTER_ROLE",
      "outputs": [
        {
          "internalType": "bytes32",
          "name": "",
          "type": "bytes32"
        }
      ],
      "stateMutability": "view",
      "type": "function"
    },
    {
      "inputs": [
        {
          "internalType": "address",
          "name": "to",
          "type": "address"
        },
        {
          "internalType": "uint256",
          "name": "tokenId",
          "type": "uint256"
        }
      ],
      "name": "approve",
      "outputs": [],
      "stateMutability": "nonpayable",
      "type": "function"
    },
    {
      "inputs": [],
      "name": "availableToWithdraw",
      "outputs": [
        {
          "internalType": "uint256",
          "name": "",
          "type": "uint256"
        }
      ],
      "stateMutability": "view",
      "type": "function"
    },
    {
      "inputs": [
        {
          "internalType": "address",
          "name": "owner",
          "type": "address"
        }
      ],
      "name": "balanceOf",
      "outputs": [
        {
          "internalType": "uint256",
          "name": "",
          "type": "uint256"
        }
      ],
      "stateMutability": "view",
      "type": "function"
    },
    {
      "inputs": [
        {
          "internalType": "uint256",
          "name": "tokenId",
          "type": "uint256"
        }
      ],
      "name": "getApproved",
      "outputs": [
        {
          "internalType": "address",
          "name": "",
          "type": "address"
        }
      ],
      "stateMutability": "view",
      "type": "function"
    },
    {
      "inputs": [],
      "name": "getChainID",
      "outputs": [
        {
          "internalType": "uint256",
          "name": "",
          "type": "uint256"
        }
      ],
      "stateMutability": "view",
      "type": "function"
    },
    {
      "inputs": [
        {
          "internalType": "bytes32",
          "name": "role",
          "type": "bytes32"
        }
      ],
      "name": "getRoleAdmin",
      "outputs": [
        {
          "internalType": "bytes32",
          "name": "",
          "type": "bytes32"
        }
      ],
      "stateMutability": "view",
      "type": "function"
    },
    {
      "inputs": [
        {
          "internalType": "bytes32",
          "name": "role",
          "type": "bytes32"
        },
        {
          "internalType": "address",
          "name": "account",
          "type": "address"
        }
      ],
      "name": "grantRole",
      "outputs": [],
      "stateMutability": "nonpayable",
      "type": "function"
    },
    {
      "inputs": [
        {
          "internalType": "bytes32",
          "name": "role",
          "type": "bytes32"
        },
        {
          "internalType": "address",
          "name": "account",
          "type": "address"
        }
      ],
      "name": "hasRole",
      "outputs": [
        {
          "internalType": "bool",
          "name": "",
          "type": "bool"
        }
      ],
      "stateMutability": "view",
      "type": "function"
    },
    {
      "inputs": [
        {
          "internalType": "address",
          "name": "owner",
          "type": "address"
        },
        {
          "internalType": "address",
          "name": "operator",
          "type": "address"
        }
      ],
      "name": "isApprovedForAll",
      "outputs": [
        {
          "internalType": "bool",
          "name": "",
          "type": "bool"
        }
      ],
      "stateMutability": "view",
      "type": "function"
    },
    {
      "inputs": [
        {
          "internalType": "address",
          "name": "signer",
          "type": "address"
        },
        {
          "internalType": "address",
          "name": "minter",
          "type": "address"
        },
        {
          "components": [
            {
              "internalType": "uint256",
              "name": "tokenId",
              "type": "uint256"
            },
            {
              "internalType": "string",
              "name": "uri",
              "type": "string"
            },
            {
              "internalType": "bytes",
              "name": "signature",
              "type": "bytes"
            }
          ],
          "internalType": "struct LazyNFT.NFTVoucher",
          "name": "voucher",
          "type": "tuple"
        }
      ],
      "name": "mint",
      "outputs": [
        {
          "internalType": "uint256",
          "name": "",
          "type": "uint256"
        }
      ],
      "stateMutability": "payable",
      "type": "function"
    },
    {
      "inputs": [],
      "name": "name",
      "outputs": [
        {
          "internalType": "string",
          "name": "",
          "type": "string"
        }
      ],
      "stateMutability": "view",
      "type": "function"
    },
    {
      "inputs": [
        {
          "internalType": "uint256",
          "name": "tokenId",
          "type": "uint256"
        }
      ],
      "name": "ownerOf",
      "outputs": [
        {
          "internalType": "address",
          "name": "",
          "type": "address"
        }
      ],
      "stateMutability": "view",
      "type": "function"
    },
    {
      "inputs": [
        {
          "internalType": "bytes32",
          "name": "role",
          "type": "bytes32"
        },
        {
          "internalType": "address",
          "name": "account",
          "type": "address"
        }
      ],
      "name": "renounceRole",
      "outputs": [],
      "stateMutability": "nonpayable",
      "type": "function"
    },
    {
      "inputs": [
        {
          "internalType": "bytes32",
          "name": "role",
          "type": "bytes32"
        },
        {
          "internalType": "address",
          "name": "account",
          "type": "address"
        }
      ],
      "name": "revokeRole",
      "outputs": [],
      "stateMutability": "nonpayable",
      "type": "function"
    },
    {
      "inputs": [
        {
          "internalType": "address",
          "name": "from",
          "type": "address"
        },
        {
          "internalType": "address",
          "name": "to",
          "type": "address"
        },
        {
          "internalType": "uint256",
          "name": "tokenId",
          "type": "uint256"
        }
      ],
      "name": "safeTransferFrom",
      "outputs": [],
      "stateMutability": "nonpayable",
      "type": "function"
    },
    {
      "inputs": [
        {
          "internalType": "address",
          "name": "from",
          "type": "address"
        },
        {
          "internalType": "address",
          "name": "to",
          "type": "address"
        },
        {
          "internalType": "uint256",
          "name": "tokenId",
          "type": "uint256"
        },
        {
          "internalType": "bytes",
          "name": "_data",
          "type": "bytes"
        }
      ],
      "name": "safeTransferFrom",
      "outputs": [],
      "stateMutability": "nonpayable",
      "type": "function"
    },
    {
      "inputs": [
        {
          "internalType": "address",
          "name": "operator",
          "type": "address"
        },
        {
          "internalType": "bool",
          "name": "approved",
          "type": "bool"
        }
      ],
      "name": "setApprovalForAll",
      "outputs": [],
      "stateMutability": "nonpayable",
      "type": "function"
    },
    {
      "inputs": [
        {
          "internalType": "bytes4",
          "name": "interfaceId",
          "type": "bytes4"
        }
      ],
      "name": "supportsInterface",
      "outputs": [
        {
          "internalType": "bool",
          "name": "",
          "type": "bool"
        }
      ],
      "stateMutability": "view",
      "type": "function"
    },
    {
      "inputs": [],
      "name": "symbol",
      "outputs": [
        {
          "internalType": "string",
          "name": "",
          "type": "string"
        }
      ],
      "stateMutability": "view",
      "type": "function"
    },
    {
      "inputs": [
        {
          "internalType": "uint256",
          "name": "tokenId",
          "type": "uint256"
        }
      ],
      "name": "tokenURI",
      "outputs": [
        {
          "internalType": "string",
          "name": "",
          "type": "string"
        }
      ],
      "stateMutability": "view",
      "type": "function"
    },
    {
      "inputs": [
        {
          "internalType": "address",
          "name": "from",
          "type": "address"
        },
        {
          "internalType": "address",
          "name": "to",
          "type": "address"
        },
        {
          "internalType": "uint256",
          "name": "tokenId",
          "type": "uint256"
        }
      ],
      "name": "transferFrom",
      "outputs": [],
      "stateMutability": "nonpayable",
      "type": "function"
    },
    {
      "inputs": [],
      "name": "withdraw",
      "outputs": [],
      "stateMutability": "nonpayable",
      "type": "function"
    }
  ],
  "bytecode": "0x6101206040523480156200001257600080fd5b5060405162002a9038038062002a90833981016040819052620000359162000324565b6040518060400160405280600f81526020016e2630bd3ca7232a16ab37bab1b432b960891b815250604051806040016040528060018152602001603160f81b8152506040518060400160405280600781526020016613185e9e53919560ca1b815250604051806040016040528060038152602001622620ad60e91b8152508160009080519060200190620000cb9291906200027e565b508051620000e19060019060208401906200027e565b5050825160208085019190912083519184019190912060c082905260e08190524660a0529091507f8b73c3c69bb8fe3d512ecc4cf759cc79239f7b179b0ffacaa9a75d522b39400f6200013681848462000177565b60805261010052506200017092507f9f2df0fed2c77648de5860a4cc508cd0818c85b8b8a1ab4ceeef8d981c8956a69150839050620001b3565b50620003bd565b600083838346306040516020016200019495949392919062000354565b6040516020818303038152906040528051906020012090509392505050565b620001bf8282620001c3565b5050565b620001cf82826200024f565b620001bf5760008281526007602090815260408083206001600160a01b03851684529091529020805460ff191660011790556200020b6200027a565b6001600160a01b0316816001600160a01b0316837f2f8788117e7eff1d82e926ec794901d17c78024a50270940304540a733656f0d60405160405180910390a45050565b60009182526007602090815260408084206001600160a01b0393909316845291905290205460ff1690565b3390565b8280546200028c9062000380565b90600052602060002090601f016020900481019282620002b05760008555620002fb565b82601f10620002cb57805160ff1916838001178555620002fb565b82800160010185558215620002fb579182015b82811115620002fb578251825591602001919060010190620002de565b50620003099291506200030d565b5090565b5b808211156200030957600081556001016200030e565b60006020828403121562000336578081fd5b81516001600160a01b03811681146200034d578182fd5b9392505050565b9485526020850193909352604084019190915260608301526001600160a01b0316608082015260a00190565b6002810460018216806200039557607f821691505b60208210811415620003b757634e487b7160e01b600052602260045260246000fd5b50919050565b60805160a05160c05160e0516101005161268e62000402600039600061182a0152600061186c0152600061184b015260006117d801526000611801015261268e6000f3fe60806040526004361061014b5760003560e01c806370a08231116100b6578063b88d4fde1161006f578063b88d4fde1461038b578063c87b56dd146103ab578063d5391393146103cb578063d547741f146103e0578063e322ad2b14610400578063e985e9c5146104155761014b565b806370a08231146102ee5780637fb84ed11461030e57806391d148541461032157806395d89b4114610341578063a217fddf14610356578063a22cb4651461036b5761014b565b80632f2ff15d116101085780632f2ff15d1461024457806336568abe146102645780633ccfd60b1461028457806342842e0e14610299578063564b81ef146102b95780636352211e146102ce5761014b565b806301ffc9a71461015057806306fdde0314610186578063081812fc146101a8578063095ea7b3146101d557806323b872dd146101f7578063248a9ca314610217575b600080fd5b34801561015c57600080fd5b5061017061016b366004611c06565b610435565b60405161017d9190611d80565b60405180910390f35b34801561019257600080fd5b5061019b610457565b60405161017d9190611df4565b3480156101b457600080fd5b506101c86101c3366004611bcc565b6104ea565b60405161017d9190611d39565b3480156101e157600080fd5b506101f56101f0366004611ba3565b610536565b005b34801561020357600080fd5b506101f5610212366004611a62565b6105ce565b34801561022357600080fd5b50610237610232366004611bcc565b610606565b60405161017d9190611d8b565b34801561025057600080fd5b506101f561025f366004611be4565b61061b565b34801561027057600080fd5b506101f561027f366004611be4565b61063f565b34801561029057600080fd5b506101f5610685565b3480156102a557600080fd5b506101f56102b4366004611a62565b61070e565b3480156102c557600080fd5b50610237610729565b3480156102da57600080fd5b506101c86102e9366004611bcc565b61072d565b3480156102fa57600080fd5b506102376103093660046119b4565b610762565b61023761031c366004611a00565b6107a6565b34801561032d57600080fd5b5061017061033c366004611be4565b61087f565b34801561034d57600080fd5b5061019b6108aa565b34801561036257600080fd5b506102376108b9565b34801561037757600080fd5b506101f5610386366004611b69565b6108be565b34801561039757600080fd5b506101f56103a6366004611a9d565b61098c565b3480156103b757600080fd5b5061019b6103c6366004611bcc565b6109cb565b3480156103d757600080fd5b50610237610aec565b3480156103ec57600080fd5b506101f56103fb366004611be4565b610b10565b34801561040c57600080fd5b50610237610b2f565b34801561042157600080fd5b506101706104303660046119ce565b610b42565b600061044082610b70565b8061044f575061044f82610bb0565b90505b919050565b60606000805461046690612593565b80601f016020809104026020016040519081016040528092919081815260200182805461049290612593565b80156104df5780601f106104b4576101008083540402835291602001916104df565b820191906000526020600020905b8154815290600101906020018083116104c257829003601f168201915b505050505090505b90565b60006104f582610bd5565b61051a5760405162461bcd60e51b815260040161051190612242565b60405180910390fd5b506000908152600460205260409020546001600160a01b031690565b60006105418261072d565b9050806001600160a01b0316836001600160a01b031614156105755760405162461bcd60e51b81526004016105119061236a565b806001600160a01b0316610587610bf2565b6001600160a01b031614806105a357506105a381610430610bf2565b6105bf5760405162461bcd60e51b81526004016105119061203c565b6105c98383610bf6565b505050565b6105df6105d9610bf2565b82610c64565b6105fb5760405162461bcd60e51b8152600401610511906123ec565b6105c9838383610ce1565b60009081526007602052604090206001015490565b61062482610606565b61063581610630610bf2565b610e0e565b6105c98383610e72565b610647610bf2565b6001600160a01b0316816001600160a01b0316146106775760405162461bcd60e51b81526004016105119061243d565b6106818282610ef9565b5050565b6106af7f9f2df0fed2c77648de5860a4cc508cd0818c85b8b8a1ab4ceeef8d981c8956a63361087f565b6106cb5760405162461bcd60e51b815260040161051190612326565b3360008181526008602052604080822080549083905590519091839183156108fc0291849190818181858888f193505050501580156105c9573d6000803e3d6000fd5b6105c98383836040518060200160405280600081525061098c565b4690565b6000818152600260205260408120546001600160a01b03168061044f5760405162461bcd60e51b8152600401610511906120e3565b60006001600160a01b03821661078a5760405162461bcd60e51b815260040161051190612099565b506001600160a01b031660009081526003602052604090205490565b6000806107b283610f7e565b9050806001600160a01b0316856001600160a01b0316146107e55760405162461bcd60e51b8152600401610511906123ab565b6107f0858435610fde565b61083c833561080260208601866124d8565b8080601f0160208091040260200160405190810160405280939291908181526020018383808284376000920191909152506110bd92505050565b61084885858535610ce1565b6001600160a01b038516600090815260086020526040812080543492906108709084906124ee565b90915550509135949350505050565b60009182526007602090815260408084206001600160a01b0393909316845291905290205460ff1690565b60606001805461046690612593565b600081565b6108c6610bf2565b6001600160a01b0316826001600160a01b031614156108f75760405162461bcd60e51b815260040161051190611f77565b8060056000610904610bf2565b6001600160a01b03908116825260208083019390935260409182016000908120918716808252919093529120805460ff191692151592909217909155610948610bf2565b6001600160a01b03167f17307eab39ab6107e8899845ad3d59bd9653f200f220920489ca2b5937696c31836040516109809190611d80565b60405180910390a35050565b61099d610997610bf2565b83610c64565b6109b95760405162461bcd60e51b8152600401610511906123ec565b6109c584848484611101565b50505050565b60606109d682610bd5565b6109f25760405162461bcd60e51b8152600401610511906121f1565b60008281526006602052604081208054610a0b90612593565b80601f0160208091040260200160405190810160405280929190818152602001828054610a3790612593565b8015610a845780601f10610a5957610100808354040283529160200191610a84565b820191906000526020600020905b815481529060010190602001808311610a6757829003601f168201915b505050505090506000610a95611134565b9050805160001415610aa957509050610452565b815115610adb578082604051602001610ac3929190611c7a565b60405160208183030381529060405292505050610452565b610ae484611146565b949350505050565b7f9f2df0fed2c77648de5860a4cc508cd0818c85b8b8a1ab4ceeef8d981c8956a681565b610b1982610606565b610b2581610630610bf2565b6105c98383610ef9565b3360009081526008602052604090205490565b6001600160a01b03918216600090815260056020908152604080832093909416825291909152205460ff1690565b60006001600160e01b031982166380ac58cd60e01b1480610ba157506001600160e01b03198216635b5e139f60e01b145b8061044f575061044f826111c9565b60006001600160e01b03198216637965db0b60e01b148061044f575061044f82610b70565b6000908152600260205260409020546001600160a01b0316151590565b3390565b600081815260046020526040902080546001600160a01b0319166001600160a01b0384169081179091558190610c2b8261072d565b6001600160a01b03167f8c5be1e5ebec7d5bd14f71427d1e84f3dd0314c0f7b2291e5b200ac8c7c3b92560405160405180910390a45050565b6000610c6f82610bd5565b610c8b5760405162461bcd60e51b815260040161051190611ff0565b6000610c968361072d565b9050806001600160a01b0316846001600160a01b03161480610cd15750836001600160a01b0316610cc6846104ea565b6001600160a01b0316145b80610ae45750610ae48185610b42565b826001600160a01b0316610cf48261072d565b6001600160a01b031614610d1a5760405162461bcd60e51b81526004016105119061228e565b6001600160a01b038216610d405760405162461bcd60e51b815260040161051190611f33565b610d4b8383836105c9565b610d56600082610bf6565b6001600160a01b0383166000908152600360205260408120805460019290610d7f908490612539565b90915550506001600160a01b0382166000908152600360205260408120805460019290610dad9084906124ee565b909155505060008181526002602052604080822080546001600160a01b0319166001600160a01b0386811691821790925591518493918716917fddf252ad1be2c89b69c2b068fc378daa952ba7f163c4a11628f55a4df523b3ef91a4505050565b610e18828261087f565b61068157610e30816001600160a01b031660146111e2565b610e3b8360206111e2565b604051602001610e4c929190611cc4565b60408051601f198184030181529082905262461bcd60e51b825261051191600401611df4565b610e7c828261087f565b6106815760008281526007602090815260408083206001600160a01b03851684529091529020805460ff19166001179055610eb5610bf2565b6001600160a01b0316816001600160a01b0316837f2f8788117e7eff1d82e926ec794901d17c78024a50270940304540a733656f0d60405160405180910390a45050565b610f03828261087f565b156106815760008281526007602090815260408083206001600160a01b03851684529091529020805460ff19169055610f3a610bf2565b6001600160a01b0316816001600160a01b0316837ff6391f5c32d9c69d2a47ea670b442974b53935d1edc7fd64eb21e047a839171b60405160405180910390a45050565b600080610f8a83611394565b9050610fd781610f9d604086018661248c565b8080601f01602080910402602001604051908101604052809392919081815260200183838082843760009201919091525061140992505050565b9392505050565b6001600160a01b0382166110045760405162461bcd60e51b8152600401610511906121bc565b61100d81610bd5565b1561102a5760405162461bcd60e51b815260040161051190611efc565b611036600083836105c9565b6001600160a01b038216600090815260036020526040812080546001929061105f9084906124ee565b909155505060008181526002602052604080822080546001600160a01b0319166001600160a01b03861690811790915590518392907fddf252ad1be2c89b69c2b068fc378daa952ba7f163c4a11628f55a4df523b3ef908290a45050565b6110c682610bd5565b6110e25760405162461bcd60e51b81526004016105119061212c565b600082815260066020908152604090912082516105c992840190611904565b61110c848484610ce1565b6111188484848461148f565b6109c55760405162461bcd60e51b815260040161051190611eaa565b60408051602081019091526000815290565b606061115182610bd5565b61116d5760405162461bcd60e51b8152600401610511906122d7565b6000611177611134565b905060008151116111975760405180602001604052806000815250610fd7565b806111a1846115aa565b6040516020016111b2929190611c7a565b604051602081830303815290604052915050919050565b6001600160e01b031981166301ffc9a760e01b14919050565b606060006111f183600261251a565b6111fc9060026124ee565b67ffffffffffffffff81111561122257634e487b7160e01b600052604160045260246000fd5b6040519080825280601f01601f19166020018201604052801561124c576020820181803683370190505b509050600360fc1b8160008151811061127557634e487b7160e01b600052603260045260246000fd5b60200101906001600160f81b031916908160001a905350600f60fb1b816001815181106112b257634e487b7160e01b600052603260045260246000fd5b60200101906001600160f81b031916908160001a90535060006112d684600261251a565b6112e19060016124ee565b90505b6001811115611375576f181899199a1a9b1b9c1cb0b131b232b360811b85600f166010811061132357634e487b7160e01b600052603260045260246000fd5b1a60f81b82828151811061134757634e487b7160e01b600052603260045260246000fd5b60200101906001600160f81b031916908160001a90535060049490941c9361136e8161257c565b90506112e4565b508315610fd75760405162461bcd60e51b815260040161051190611e3e565b600061044f7fc0d8176793ab998e33a4e057651fb631ae6240d937f0923d09b9936580ba2c7583356113c960208601866124d8565b6040516113d7929190611c6a565b6040519081900381206113ee939291602001611dc0565b604051602081830303815290604052805190602001206116c5565b6000806000808451604114156114335750505060208201516040830151606084015160001a611479565b8451604014156114615750505060408201516020830151906001600160ff1b0381169060ff1c601b01611479565b60405162461bcd60e51b815260040161051190611e73565b611485868285856116d8565b9695505050505050565b60006114a3846001600160a01b03166117ce565b1561159f57836001600160a01b031663150b7a026114bf610bf2565b8786866040518563ffffffff1660e01b81526004016114e19493929190611d4d565b602060405180830381600087803b1580156114fb57600080fd5b505af192505050801561152b575060408051601f3d908101601f1916820190925261152891810190611c22565b60015b611585573d808015611559576040519150601f19603f3d011682016040523d82523d6000602084013e61155e565b606091505b50805161157d5760405162461bcd60e51b815260040161051190611eaa565b805181602001fd5b6001600160e01b031916630a85bd0160e11b149050610ae4565b506001949350505050565b6060816115cf57506040805180820190915260018152600360fc1b6020820152610452565b8160005b81156115f957806115e3816125ce565b91506115f29050600a83612506565b91506115d3565b60008167ffffffffffffffff81111561162257634e487b7160e01b600052604160045260246000fd5b6040519080825280601f01601f19166020018201604052801561164c576020820181803683370190505b5090505b8415610ae457611661600183612539565b915061166e600a866125e9565b6116799060306124ee565b60f81b81838151811061169c57634e487b7160e01b600052603260045260246000fd5b60200101906001600160f81b031916908160001a9053506116be600a86612506565b9450611650565b600061044f6116d26117d4565b83611897565b60007f7fffffffffffffffffffffffffffffff5d576e7357a4501ddfe92f46681b20a082111561171a5760405162461bcd60e51b815260040161051190611fae565b8360ff16601b148061172f57508360ff16601c145b61174b5760405162461bcd60e51b81526004016105119061217a565b6000600186868686604051600081526020016040526040516117709493929190611dd6565b6020604051602081039080840390855afa158015611792573d6000803e3d6000fd5b5050604051601f1901519150506001600160a01b0381166117c55760405162461bcd60e51b815260040161051190611e07565b95945050505050565b3b151590565b60007f000000000000000000000000000000000000000000000000000000000000000046141561182557507f00000000000000000000000000000000000000000000000000000000000000006104e7565b6118907f00000000000000000000000000000000000000000000000000000000000000007f00000000000000000000000000000000000000000000000000000000000000007f00000000000000000000000000000000000000000000000000000000000000006118ca565b90506104e7565b600082826040516020016118ac929190611ca9565b60405160208183030381529060405280519060200120905092915050565b600083838346306040516020016118e5959493929190611d94565b6040516020818303038152906040528051906020012090509392505050565b82805461191090612593565b90600052602060002090601f0160209004810192826119325760008555611978565b82601f1061194b57805160ff1916838001178555611978565b82800160010185558215611978579182015b8281111561197857825182559160200191906001019061195d565b50611984929150611988565b5090565b5b808211156119845760008155600101611989565b80356001600160a01b038116811461045257600080fd5b6000602082840312156119c5578081fd5b610fd78261199d565b600080604083850312156119e0578081fd5b6119e98361199d565b91506119f76020840161199d565b90509250929050565b600080600060608486031215611a14578081fd5b611a1d8461199d565b9250611a2b6020850161199d565b9150604084013567ffffffffffffffff811115611a46578182fd5b840160608187031215611a57578182fd5b809150509250925092565b600080600060608486031215611a76578283fd5b611a7f8461199d565b9250611a8d6020850161199d565b9150604084013590509250925092565b60008060008060808587031215611ab2578081fd5b611abb8561199d565b93506020611aca81870161199d565b935060408601359250606086013567ffffffffffffffff80821115611aed578384fd5b818801915088601f830112611b00578384fd5b813581811115611b1257611b12612629565b604051601f8201601f1916810185018381118282101715611b3557611b35612629565b60405281815283820185018b1015611b4b578586fd5b81858501868301379081019093019390935250939692955090935050565b60008060408385031215611b7b578182fd5b611b848361199d565b915060208301358015158114611b98578182fd5b809150509250929050565b60008060408385031215611bb5578182fd5b611bbe8361199d565b946020939093013593505050565b600060208284031215611bdd578081fd5b5035919050565b60008060408385031215611bf6578182fd5b823591506119f76020840161199d565b600060208284031215611c17578081fd5b8135610fd78161263f565b600060208284031215611c33578081fd5b8151610fd78161263f565b60008151808452611c56816020860160208601612550565b601f01601f19169290920160200192915050565b6000828483379101908152919050565b60008351611c8c818460208801612550565b835190830190611ca0818360208801612550565b01949350505050565b61190160f01b81526002810192909252602282015260420190565b60007f416363657373436f6e74726f6c3a206163636f756e742000000000000000000082528351611cfc816017850160208801612550565b7001034b99036b4b9b9b4b733903937b6329607d1b6017918401918201528351611d2d816028840160208801612550565b01602801949350505050565b6001600160a01b0391909116815260200190565b6001600160a01b038581168252841660208201526040810183905260806060820181905260009061148590830184611c3e565b901515815260200190565b90815260200190565b9485526020850193909352604084019190915260608301526001600160a01b0316608082015260a00190565b9283526020830191909152604082015260600190565b93845260ff9290921660208401526040830152606082015260800190565b600060208252610fd76020830184611c3e565b60208082526018908201527f45434453413a20696e76616c6964207369676e61747572650000000000000000604082015260600190565b6020808252818101527f537472696e67733a20686578206c656e67746820696e73756666696369656e74604082015260600190565b6020808252601f908201527f45434453413a20696e76616c6964207369676e6174757265206c656e67746800604082015260600190565b60208082526032908201527f4552433732313a207472616e7366657220746f206e6f6e20455243373231526560408201527131b2b4bb32b91034b6b83632b6b2b73a32b960711b606082015260800190565b6020808252601c908201527f4552433732313a20746f6b656e20616c7265616479206d696e74656400000000604082015260600190565b60208082526024908201527f4552433732313a207472616e7366657220746f20746865207a65726f206164646040820152637265737360e01b606082015260800190565b60208082526019908201527f4552433732313a20617070726f766520746f2063616c6c657200000000000000604082015260600190565b60208082526022908201527f45434453413a20696e76616c6964207369676e6174757265202773272076616c604082015261756560f01b606082015260800190565b6020808252602c908201527f4552433732313a206f70657261746f7220717565727920666f72206e6f6e657860408201526b34b9ba32b73a103a37b5b2b760a11b606082015260800190565b60208082526038908201527f4552433732313a20617070726f76652063616c6c6572206973206e6f74206f7760408201527f6e6572206e6f7220617070726f76656420666f7220616c6c0000000000000000606082015260800190565b6020808252602a908201527f4552433732313a2062616c616e636520717565727920666f7220746865207a65604082015269726f206164647265737360b01b606082015260800190565b60208082526029908201527f4552433732313a206f776e657220717565727920666f72206e6f6e657869737460408201526832b73a103a37b5b2b760b91b606082015260800190565b6020808252602e908201527f45524337323155524953746f726167653a2055524920736574206f66206e6f6e60408201526d32bc34b9ba32b73a103a37b5b2b760911b606082015260800190565b60208082526022908201527f45434453413a20696e76616c6964207369676e6174757265202776272076616c604082015261756560f01b606082015260800190565b6020808252818101527f4552433732313a206d696e7420746f20746865207a65726f2061646472657373604082015260600190565b60208082526031908201527f45524337323155524953746f726167653a2055524920717565727920666f72206040820152703737b732bc34b9ba32b73a103a37b5b2b760791b606082015260800190565b6020808252602c908201527f4552433732313a20617070726f76656420717565727920666f72206e6f6e657860408201526b34b9ba32b73a103a37b5b2b760a11b606082015260800190565b60208082526029908201527f4552433732313a207472616e73666572206f6620746f6b656e2074686174206960408201526839903737ba1037bbb760b91b606082015260800190565b6020808252602f908201527f4552433732314d657461646174613a2055524920717565727920666f72206e6f60408201526e3732bc34b9ba32b73a103a37b5b2b760891b606082015260800190565b60208082526024908201527f4f6e6c7920617574686f72697a6564206d696e746572732063616e20776974686040820152636472617760e01b606082015260800190565b60208082526021908201527f4552433732313a20617070726f76616c20746f2063757272656e74206f776e656040820152603960f91b606082015260800190565b60208082526021908201527f5369676e617475726520696e76616c6964206f7220756e617574686f72697a656040820152601960fa1b606082015260800190565b60208082526031908201527f4552433732313a207472616e736665722063616c6c6572206973206e6f74206f6040820152701ddb995c881b9bdc88185c1c1c9bdd9959607a1b606082015260800190565b6020808252602f908201527f416363657373436f6e74726f6c3a2063616e206f6e6c792072656e6f756e636560408201526e103937b632b9903337b91039b2b63360891b606082015260800190565b6000808335601e198436030181126124a2578283fd5b83018035915067ffffffffffffffff8211156124bc578283fd5b6020019150368190038213156124d157600080fd5b9250929050565b6000808335601e198436030181126124a2578182fd5b60008219821115612501576125016125fd565b500190565b60008261251557612515612613565b500490565b6000816000190483118215151615612534576125346125fd565b500290565b60008282101561254b5761254b6125fd565b500390565b60005b8381101561256b578181015183820152602001612553565b838111156109c55750506000910152565b60008161258b5761258b6125fd565b506000190190565b6002810460018216806125a757607f821691505b602082108114156125c857634e487b7160e01b600052602260045260246000fd5b50919050565b60006000198214156125e2576125e26125fd565b5060010190565b6000826125f8576125f8612613565b500690565b634e487b7160e01b600052601160045260246000fd5b634e487b7160e01b600052601260045260246000fd5b634e487b7160e01b600052604160045260246000fd5b6001600160e01b03198116811461265557600080fd5b5056fea26469706673582212200ed38a78c054a6c463fd1b1730cdfc529ff83f485c48830d8096efa0d2216d3764736f6c63430008000033",
  "linkReferences": {},
  "deployedLinkReferences": {}
}